:020000040800F2
:10000000A0400020D10100089F160008111500082B
:100010009D160008E50200084524000800000000C5
:10002000000000000000000000000000DD190008D2
:10003000E702000800000000A1160008DF19000810
:10004000EB010008EB010008EB010008EB010008E0
:10005000EB010008EB010008EB010008EB010008D0
:10006000EB010008EB010008EB010008EB010008C0
:10007000EB010008EB010008EB010008EB010008B0
:10008000EB010008EB010008EB010008EB010008A0
:10009000EB010008EB010008EB010008EB01000890
:1000A000EB010008EB010008EB010008EB01000880
:1000B000EB010008EB010008EB010008EB01000870
:1000C000EB010008EB010008EB010008EB01000860
:1000D000EB010008EB010008EB010008EB01000850
:1000E000EB010008EB010008EB010008EB01000840
:1000F000EB010008EB010008EB0100080000000024
:10010000EB010008EB010008EB010008EB0100081F
:10011000EB010008EB010008EB010008EB0100080F
:10012000EB010008EB010008EB010008EB010008FF
:10013000EB010008EB010008EB010008EB010008EF
:10014000EB010008EB010008EB010008EB010008DF
:10015000EB010008EB010008EB010008EB010008CF
:10016000EB010008EB010008EB010008EB010008BF
:10017000EB010008EB010008000000000000000097
:10018000EB010008EB010008EB010008EB0100089F
:10019000EB010008EB010008000000000000000077
:1001A0000000000000000000EB010008EB01000867
:1001B000EB010008EB010008EB010008DFF80CD0B0
:1001C00000F07EF80048004785240008A040002089
:1001D0000648804706480047FEE7FEE7FEE7FEE7E1
:1001E000FEE7FEE7FEE7FEE7FEE7FEE7591A000836
:1001F000BD0100082DE9F05F0546002092469B46B0
:1002000088460646814640241BE02846414647462C
:10021000224600F044F853465A46C01A914110D382
:1002200011461846224600F02BF82D1A67EB0108FC
:100230004F4622460120002100F022F817EB00096A
:100240004E41201EA4F10104DFDC484631462A4617
:10025000434600F000B830BCBDE8C09FD2B201E018
:1002600000F8012B491EFBD270470022F6E710B5BB
:1002700013460A4604461946FFF7F0FF204610BD14
:10028000202A04DB203A00FA02F100207047914056
:10029000C2F1200320FA03F3194390407047202A4B
:1002A00004DB203A21FA02F00021704721FA02F320
:1002B000D040C2F120029140084319467047000027
:1002C000064C074D06E0E06840F0010394E80700A3
:1002D00098471034AC42F6D3FFF774FF00250008AE
:1002E00020250008FEE770472DE9F84FDFF888B1B8
:1002F00000234FF0010C4FF0030A4FF00F090BF1F0
:10030000040EB1E00CFA03F632406FD04C68022CB8
:1003100001D0122C11D1DC0800EB84073C6A5D0788
:10032000ED0E09FA05F824EA0804D1F8108008FA5D
:1003300005F848EA0408C7F8208007685D0091F8CE
:1003400004800AFA05F408F00308A74308FA05F840
:1003500048EA0708C0F800804F68012F05D0022F37
:1003600003D0112F01D0122F10D1D0F80880CF6800
:1003700028EA0408AF4047EA080787604768B743A0
:100380000E79C6F300169E403E434660C668A643FB
:100390008C68AC403443C4604C68E40063D5374C8F
:1003A000256E45F001052566246E23F0030504F053
:1003B00001040094324C2F19BD689C07260F09FADE
:1003C00006F4A543B0F1904F04D02E4CA04203D1C7
:1003D000012421E000241FE02B4CA04201D1022483
:1003E0001AE02A4CA04202D1032415E03BE0284C3D
:1003F000A04201D104240FE0264CA04201D10524E3
:100400000AE0254CA04201D1062405E0234CA0427D
:1004100001D1072400E00824B4402C43BC60DBF881
:1004200000405D464E689443F60300D514432C60AB
:10043000DEF8004075464E689443B60300D5144379
:100440002C600D4D08352C684E689443F60200D59B
:1004500014432C60084D0C352C684E689443B6024A
:1004600000D514432C605B1C0A6832FA03F47FF455
:1004700049AF00F015B80000000401400010024030
:10048000000001400004004800080048000C00483B
:10049000001000480014004800180048001C0048E4
:1004A00018BCBDE8E08F0AB1816170478162704776
:1004B0000148806870470000000000200248816801
:1004C00042681144816070470000002010B500248C
:1004D000032000F063F8002000F008F808B10124C0
:1004E00001E000F025F8204610BD000070B50E4E6A
:1004F00005460024706898B14FF47A71B1FBF0F0B2
:100500000A490968B1FBF0F000F0D8FE40B9102D9F
:1005100006D200222946501E00F020F8356000E087
:100520000124204670BD0000000000200C000020C7
:10053000094808B5016E41F001010166016E01F044
:1005400001010091816D41F080518165806D00F065
:100550008050009008BD000000100240F0B40E4B27
:100560001B680C46C3F30223C3F10705042D00D911
:100570000425191D072901D2002300E0DB1E0126F6
:1005800006FA05F1491E214099409E40761E16400C
:100590003143F0BC01F057BF0CED00E0064900F01C
:1005A000070208684FF6FF03184040EA0220034A9A
:1005B00010430860704700000CED00E00000FA05F1
:1005C0002B492C4B0A6832214A432B4940B1B0F5E4
:1005D000007F086829D020F4C06040F480602CE0DF
:1005E0000868C0F34120022804D051F8800F20F49D
:1005F000807022E0D1F8800020F48070C1F8800083
:10060000086820F4C06040F400700860B2FBF3F0AA
:10061000401C00E0401E4A69520501D50028F9D16E
:10062000486940050AD503207047C0F341200228DD
:1006300006D051F8800F40F48070086000207047A9
:10064000D1F8800040F48070C1F88000086820F480
:10065000C06040F400700860B2FBF3F0401C00E0A2
:10066000401E4A695205DBD50028F9D1D8E70000C1
:100670000C00002040420F0000700040024841681A
:1006800041F4007141607047007000400848016803
:10069000C1F34121022906D0D0F88000C00505D55C
:1006A0004FF4007070474FF480607047002070472F
:1006B000007000402DE9F84F0446002700883E46B0
:1006C000010504F12008FE4D1ED5E06E40280AD039
:1006D00003DC68B1202804D10FE0602821D08028F5
:1006E0001FD001270FE0E86840F48030E86018E090
:1006F0000021201D00F0D6FF03E00021404601F05C
:1007000065F807000DD03E462088C0042BD5206F29
:10071000B0F5007F16D00DDCC8B1B0F5807F0FD1E9
:100720001AE0D5F89C00E16E20F0E0000843C5F81F
:100730009C00E9E7B0F5407F13D0B0F5806F10D092
:1007400001270FE0E86840F48030E86009E000210C
:10075000201D00F0A7FF03E00021404601F036F81D
:100760000746F7B13E46206880033AD5A86D4FF0A2
:100770000008C00009D4A86D40F08050A865A86D9D
:100780004FF0010800F080500090DFF838A3DAF84D
:10079000001041F48071CAF80010FFF789FE81460D
:1007A00010E0D5F89C00216F20F4E0600843C5F804
:1007B0009C00D8E7FFF77CFEA0EB0900022801D9D6
:1007C000032705E0DAF80000C005F3D5002F7CD040
:1007D0004FEA0706B8F1000F03D0A86D20F0805053
:1007E000A8652078C00707D0D5F88800E16B20F015
:1007F00003000843C5F888002078800707D5D5F89E
:100800008800216C20F00C000843C5F8880020788F
:10081000400707D5D5F88800616C20F03000084308
:10082000C5F888002078000707D5D5F88800A16CA6
:1008300020F0C0000843C5F888002078C00607D51E
:10084000D5F88800E16C20F440700843C5F88800B2
:100850002078800607D5D5F88800216D20F4406007
:100860000843C5F888002088800507D5D5F888009A
:10087000616E20F440200843C5F8880020884005B8
:1008800007D5D5F88800A16E20F440100843C5F8BC
:1008900088002078400607D5D5F88800616D20F4DF
:1008A00040500843C5F888002078000607D5D5F8E1
:1008B0008800A16D20F440400843C5F888002088D6
:1008C000C00509D5D5F8880000E027E0E16D20F4E7
:1008D00040300843C5F888002068C00207D5D5F825
:1008E0009C00216E20F003000843C5F89C0020887E
:1008F0004FF0006780044FF0806850D5D5F888002D
:10090000616F20F040600843C5F88800606FB8420E
:100910003DD1E86840F48010E86040E0D5F89000F0
:1009200010F4407015D0D4F89010814211D0D5F851
:100930009000D5F8901020F4407041F48031C5F853
:100940009010D5F8901021F48031C5F89010C5F8BA
:100950009000C00711D0FFF7ABFD074641F2883980
:1009600007E000BFFFF7A4FDC11B494501D90326DD
:1009700030E7D5F890008007F4D5D5F89000D4F88A
:10098000901020F440700843C5F8900022E74045DD
:1009900005D10121201D00F085FE00B1064620682A
:1009A00000032DD5A06F4FF480418842D5F89C00FC
:1009B00004D140F48040C5F89C000BE020F4804056
:1009C000C5F89C00D5F88800A26F20F04060104365
:1009D000C5F88800A06FB84203D1E86840F48010E1
:1009E00004E0884204D1E86840F48030E86007E021
:1009F000404505D10121201D00F054FE00B10646FE
:100A00002068400317D5D5F88800E16F20F04060DA
:100A10000843C5F88800E06FB84204D1E86840F4A4
:100A20008010E86007E0404505D10121201D00F05D
:100A300039FE00B106462088400413D5D5F8880059
:100A4000D4F8801020F040500843C5F88800D4F84E
:100A50008000B0F1805F05D10221201D00F022FE50
:100A600000B106462068C00308D5D5F89C00D4F82C
:100A7000841020F004000843C5F89C002068800220
:100A800008D5D5F89C00D4F8881020F01800084349
:100A9000C5F89C002068C00110D5D5F89C0054F81A
:100AA0008C1F20F440100843C5F89C002068B0F566
:100AB000001F03D1E86840F48010E860304603E08E
:100AC000001002400070004000F000B818BCBDE803
:100AD000E08F00002DE9F0470E4605004FF00007BB
:100AE0007ED0DFF85C81D8F8000000F00F00B04243
:100AF0000CD2D8F8001021F00F013143C8F80010D3
:100B0000D8F8000000F00F00B04271D128784D4CA9
:100B1000C0074BD06868DFF8309103281ED0022848
:100B20002ED0002820682ED04005002860DA00F082
:100B3000B7F8484506D9A06820F0F00040F08000E2
:100B4000A0608027A068696820F003000843A060C7
:100B5000FFF7AEFC814641F2883A20E02068800130
:100B600046D500F0C7FE4845ECD9A06810F0F00F5C
:100B7000E1D028788007E5D5A8680028DBD0E1E738
:100B800020688003D1E78007CFE700BFFFF790FC24
:100B9000A0EB0901514502D90320BDE8F087A06808
:100BA000696800F00C00B0EB810FEFD12878800766
:100BB00005D5A068A96820F0F000084304E0802F64
:100BC00003D1A06820F0F000A060D8F800104046E3
:100BD00001F00F01B1420DD9016821F00F0100E0D1
:100BE00006E031430160006800F00F00B04201D020
:100BF0000120D2E72878400705D5A068E96820F4ED
:100C0000E0600843A0602878000706D5A06829693D
:100C100020F4605040EAC100A06000F041F8A168F3
:100C20000A4AC1F30311515C01F01F01C840084991
:100C3000086008480068BDE8F047FFF757BC0000AF
:100C4000002002400010024000B4C404B824000890
:100C50000C00002000000020054806490068896853
:100C6000054AC1F30221515C01F01F01C8407047E1
:100C70000C00002000100240F82400080548064936
:100C800000688968054AC1F3C221515C01F01F0167
:100C9000C84070470C00002000100240F8240008F3
:100CA00070B52549002318468A68CC6812F00C02FA
:100CB00004F00306214C4FEA640509D00C2A05D044
:100CC000042A32D0082A00D1284670BD012E10D146
:100CD0000B681B0704D4D1F89430C3F3032302E05C
:100CE0000B68C3F30313164E56F82330DAB10C2AFF
:100CF000EBD1C86800F00300022818D0032818D0F0
:100D00001846CA68CB68C2F30312C3F306234343F1
:100D1000521CB3FBF2F2C868C0F34160401C4000B3
:100D2000B2FBF0F070BD184670BD204670BD204685
:100D3000E7E72846E5E70000001002400024F40041
:100D4000C82400082DE9F84304006FD0FA4DA868C4
:100D500000F00C06E86800F003072078C00664D5B0
:100D600076B10C2E01D1012F0AD0A0690028286885
:100D70007AD040F001002860FFF79AFB80465DE0E2
:100D80002868800702D5A0690028DED0216A28687B
:100D9000000703D5286800F0F00004E0D5F89400BF
:100DA000F02202EA1010814216D9084600F0DCFD5C
:100DB00000283BD1286840F0080028602868216A94
:100DC00020F0F000084328606868E16920F47F4063
:100DD00040EA0120686016E0286840F008002860BA
:100DE0002868216A20F0F000084328606868E169FB
:100DF00020F47F4040EA0120686026B9206A00F0B4
:100E0000B3FD0028D5D1FFF74BFFA968CB4AC1F34A
:100E10000311515C01F01F01C840C9490860C9486D
:100E20000068FFF763FB00287ED12EE0CAE000BF18
:100E3000FFF73EFBA0EB0800022876D82868800761
:100E4000F6D5286840F0080028602868216A20F05C
:100E5000F000084328606868E16920F47F4040EAB8
:100E60000120686011E0FFE720F001002860FFF733
:100E70001FFB804606E000BFFFF71AFBA0EB08004F
:100E80000228DAD828688007F6D42078C00740D036
:100E9000082E18D00C2E01D1032F14D06068B0F5A5
:100EA000803F17D0B0F5A02F286817D020F48030ED
:100EB0002860286820F4802028606068E0B1FFF78F
:100EC000F7FA804614E02868800322D5606800287D
:100ED00078D01EE0286840F48030EDE740F48020B0
:100EE0002860F7E7FFF7E4FAA0EB08006428A4D82D
:100EF00028688003F6D50CE0FFF7DAFA804605E0B3
:100F0000FFF7D6FAA0EB0800642896D8286880037B
:100F1000F6D4207880073BD5042E11D00C2E01D1B9
:100F2000022F0DD0E06801E0BAE1FFE00028286858
:100F30001ED040F480702860FFF7BAFA07460CE034
:100F4000286840050CD5E0680028C1D008E000BF43
:100F5000FFF7AEFAC01B022893D828684005F7D5E2
:100F60006868217C20F0FE4040EA016068600FE084
:100F700020F480702860FFF79BFA074605E000BF69
:100F8000FFF796FAC01B0228B1D828684005F7D4AD
:100F90002078000729D560690028D5F8940012D080
:100FA00040F00100C5F89400FFF782FA074604E01C
:100FB000FFF77EFAC01B022899D8D5F89400800765
:100FC000F6D512E02BE120F00100C5F89400FFF700
:100FD0006FFA074605E000BFFFF76AFAC01B022858
:100FE00085D8D5F894008007F6D42078400766D5D8
:100FF000A86D0027C00008D4A86D40F08050A865F7
:10100000A86D012700F0805000904F480168C90585
:1010100012D40168814641F480710160FFF748FAFB
:10102000804605E0FFF744FAA0EB080002287DD8CF
:10103000D9F80000C005F5D5A068012816D005280C
:10104000D5F8900017D020F00100C5F89000D5F831
:10105000900020F0040000BFC5F89000A06841F2A5
:101060008839C0B1FFF724FA80460FE0D5F8900028
:1010700040F00100F0E740F00400C5F89000F5E70B
:10108000FFF716FAA0EB080149454FD8D5F89000B4
:101090008007F5D50EE0FFF70BFA804606E000BFAB
:1010A000FFF706FAA0EB080149453FD8D5F89000B4
:1010B0008007F5D41FB1A86D20F08050A865207876
:1010C000800628D5606A0028D5F8980012D040F034
:1010D0000100C5F89800FFF7EBF9074605E000BFEF
:1010E000FFF7E6F9C01B022820D8D5F89800800742
:1010F000F6D510E020F00100C5F89800FFF7D8F908
:10110000074604E0FFF7D4F9C01B02280ED8D5F833
:1011100098008007F6D4A06AF0B3022816D00C2EEF
:101120007DD0286820F08070286000E0B7E0286853
:1011300010F0205F74D0A4E000100240B824000832
:101140000C0000200000002000700040E868E26A07
:1011500000F00301914228D1216B00F0F002090157
:101160001039914221D1626B00F4FE41B1EB022FA4
:101170001BD194F8382000F07841B1EBC26F14D144
:10118000A18F00F4C00249084905A1F50011914260
:101190000BD194F8401000E06EE04908490600F0D9
:1011A000C060A1F1007181424FD00C2E7FD0286821
:1011B00040017CD42868C00079D4286820F0807071
:1011C0002860FFF775F9064605E000BFFFF770F9E4
:1011D000801B022863D828688001F7D4F4E90B014A
:1011E0006FF00F0202EB01110843218A52044908F3
:1011F00002EB4151A26841EA02210843217D4FF0F0
:101200007E42490802EB41610843217B40EAC1600C
:10121000E968284A11400843E860286801E046E090
:101220002BE040F080702860E86840F08070E86053
:10123000FFF73EF9044604E0FFF73AF9001B0228E5
:101240002DD828688001F7D52FE0286880012CD49C
:10125000286840F080702860E86840F08070E8609E
:10126000FFF726F9044604E0FFF722F9001B0228E5
:1012700015D828688001F7D517E0E86820F003004A
:10128000E860E8680C490840E860FFF711F9044697
:1012900008E000BFFFF70CF9001B022802D9032069
:1012A000BDE8F88328688001F4D40020F8E7012025
:1012B000F6E700000C809D01FFFFEEFE10B5401E1A
:1012C000B0F1807F01D3012010BD4FF0E0246061B8
:1012D0000F21601701F0B7F80020A06107202061FE
:1012E000002010BD70B5044690F87C0001281DD088
:1012F000012084F87C002420C4F880002068056860
:10130000026822F0010202602068826822F06062B6
:101310000A438260204600F0C1FB2068056020205F
:10132000C4F88000002084F87C0070BD022070BDED
:1013300070B5044690F87C0001281DD0012084F887
:101340007C002420C4F8800020680568026822F030
:10135000010202602068826822F060420A438260D3
:10136000204600F09BFB206805602020C4F8800028
:10137000002084F87C0070BD022070BD10B5040010
:1013800003D0D4F8800010B107E0012010BD002088
:1013900084F87C00204600F027F82420C4F8800060
:1013A0002068016821F001010160204600F03CFC4A
:1013B0000128EBD0A06A10B1204600F0A1FB206804
:1013C000416821F4904141602068816821F02A0140
:1013D00081602068016841F0010101602046BDE89C
:1013E000104000F0F1BB000010B586B00446142197
:1013F0006846FEF73AFF14492068884221D1134815
:10140000C16D41F00101C165C16D01F0010105919E
:10141000C16C41F04001C164C06C00F04000059017
:10142000FFF72CF94FF4C0700090022001900020CB
:101430000290032003900820049069460448FEF7B8
:1014400053FF06B010BD00000080004000100240B5
:10145000001800482DE9F8430446D0F880001F46E4
:1014600016460D46202851D1DDB1D6B194F87C0046
:1014700001284BD0012084F87C004FF00008C4F80C
:1014800088802120C4F880001834FFF711F8A6875F
:101490008146E68754F8100C183CB0F5805F03D005
:1014A00004E00120BDE8F883206920B12E46002524
:1014B00084F87C8010E00026FAE78021204600F0C6
:1014C0006FFFB8B9C6B116F8010B21680885B4F8EA
:1014D0005600401EA4F85600B4F856004B464FF094
:1014E000000200970028E8D14FF04001204600F0AC
:1014F00057FF30B10320D5E735F8020BC0F30800E1
:10150000E3E72020C4F880000020CBE70220C9E7F1
:10151000FEE700002DE9F04186B014216846FEF791
:10152000A4FE474CE06C40F00400E064E06C00F086
:1015300004000590E06C40F08000E064E06C00F096
:1015400080000590E06C40F00200E064E06C00F088
:1015500002000590E06C40F00800E064E06C00F0F0
:1015600008000590E06C40F04000E064E06C00F0A2
:1015700040000590FFF782F8E06C40F00100E06465
:10158000E06C304E00F001004FF4814505900022E0
:1015900029463046FEF787FFDFF8AC800022402165
:1015A0004046FEF780FF4FF400500090274800248B
:1015B000CDE9010469462648FEF796FE009501250F
:1015C000CDE90154694630460394FEF78DFE4FF491
:1015D00040700226CDE90006032702940720CDE9DA
:1015E000037069461B48FEF77FFE2020CDE900040A
:1015F000694640460294FEF777FE40200090CDE910
:101600000154694640460394FEF76EFE4FF4E850DD
:10161000CDE9000602940A20CDE903704FF0904511
:1016200069462846FEF760FE3002CDE900046946AF
:1016300028460294FEF758FE06B0BDE8F08100008F
:10164000001002400004004800180048000011107B
:1016500000080048000C00480F4810B50D49016013
:101660004FF4E1314160002181600C22C160C0E98A
:10167000041281610162416281624166FFF77EFE70
:1016800000210548FFF754FEBDE810400021024844
:10169000FFF728BE0080004010000020FEE77047E2
:1016A000704700002DE9F041434C05468846E0684C
:1016B00000268107286806D0E16801F00301814215
:1016C0000FD170B11AE0012804D0022805D00328F8
:1016D00007D108E02168890701E021684905002950
:1016E00007DB012664E02168890302D421684903ED
:1016F000F5E7E16821F003010143E160206820F093
:1017000080602060FEF7D4FE074604E0FEF7D0FEBE
:10171000C01B022843D820680001F7D46FF00F00E7
:10172000B8F1000F1BD0B8F1010F24D0297D490872
:10173000420502EB4161AA6841EA02216A6800EBB6
:101740000210014320691D4A1040014321612068B5
:1017500040F080602060FEF7ABFE074621E0A968FC
:101760002A7B090241EAC2616A6800EB0210014368
:101770002069134AE8E7298A124A490802EB4151D5
:10178000AA6841EA02216A6800EB0210014320695D
:101790000D4AD9E7FEF78CFEC01B022801D90326AB
:1017A00006E020680001F5D52069A9690843206199
:1017B0003046BDE8F0810000001002400F80FFF9C4
:1017C0000F80FF070000E0FF0F809FFF2DE9F04131
:1017D000434C05468846E06800268107286806D005
:1017E000E16801F0030181420FD170B11AE00128D4
:1017F00004D0022805D0032807D108E02168890712
:1018000001E021684905002907DB012664E0216821
:10181000890302D421684903F5E7E16821F0030157
:101820000143E160206820F080502060FEF740FE18
:10183000074604E0FEF73CFEC01B022843D82068A0
:101840008000F7D46FF00F00B8F1000F1BD0B8F193
:10185000010F24D0297D4908420502EB4161AA68A5
:1018600041EA02216A6800EB0210014360691D4AE7
:10187000104001436161206840F080502060FEF715
:1018800017FE074621E0A9682A7B090241EAC261E6
:101890006A6800EB021001436069134AE8E7298A8D
:1018A000124A490802EB4151AA6841EA02216A68DA
:1018B00000EB0210014360690D4AD9E7FEF7F8FD1D
:1018C000C01B022801D9032606E020688000F5D558
:1018D0006069A969084360613046BDE8F081000095
:1018E000001002400F80FFF90F80FF070000E0FFAB
:1018F0000F809FFF18480021C26802F00302012AEE
:101900000DD10168090704D4D0F89410C1F3032164
:1019100002E00168C1F30311104A52F82110C268B5
:1019200002F00302022A02D0032A03D101E00C498B
:1019300000E00C49C268C368C2F30312C3F3062374
:101940004B43521CB3FBF2F1C068C0F34160401C32
:101950004000B1FBF0F0704700100240C8240008BE
:101960000024F40000127A00F8B51A4D064600244F
:10197000A86DC00002D5FEF789FE0DE0A86D40F00D
:101980008050A865A86D00F080500090FEF77EFEA4
:10199000A96D21F08051A965B0F5007F03D0802E9C
:1019A00006D3022407E0802E05D9A02EF9D801E045
:1019B000702E00D101240848016821F00F01214355
:1019C0000160006800F00F00A04201D00120F8BDC6
:1019D0000020F8BD00100240002002407047FEF7D2
:1019E0006DBD10B5BCB0442125A8FEF73EFC142106
:1019F00036A8FEF73AFC94216846FEF736FC002034
:101A0000FEF7DEFD1020259000246020CDE92C405B
:101A100001212B910220CDE92F0131913C21CDE90B
:101A200032103490359025A8FFF78CF90F203690AE
:101A30000320CDE937044FF48060CDE93904052156
:101A400036A8FFF747F82020149400906846FEF768
:101A500031FE3CB010BD00000D48016841F470013A
:101A600001600C48016841F00101016000218160C2
:101A70000268094B1A4002608214C260026822F4B4
:101A80008022026081610249C0038039086070478A
:101A900088ED00E000100240FFFFF6EA3FB514A118
:101AA000D1E90021CDE9002113A2D2E90012CDE94C
:101AB0000212416EB9B1026891689268C1F3426145
:101AC000520F1DF80240E50002ACA25CB5FBF2F239
:101AD000A0F86A201DF80120615CD200B2FBF1F190
:101AE000A0F868103FBD0121A0F86A10F8E70000D7
:101AF00001010103070100000804020408010101BB
:101B000090F82810C90706D001684A68C36A22F411
:101B100000321A434A6090F82810890706D50168F8
:101B20004A68036B22F480321A434A6090F8281006
:101B3000490706D501684A68436B22F480221A439C
:101B40004A6090F82810090706D501684A68836B37
:101B500022F400421A434A6090F82810C90606D5BC
:101B600001688A68C36B22F480521A438A6090F835
:101B70002810890606D501688A68036C22F4005291
:101B80001A438A6090F82810490611D501684A68FE
:101B9000436C22F480121A434A60416CB1F5801FF5
:101BA00006D101684A68836C22F4C0021A434A6075
:101BB00090F82810090606D501684A68C06C22F41E
:101BC000002202434A607047F8B500260446C0F878
:101BD0008860FEF76DFC0546206800686FF07E4760
:101BE000000708D52B4600224FF40011204600972D
:101BF00000F0D6FB60B92068006840070AD52B4684
:101C000000224FF480012046009700F0C9FB08B184
:101C10000320F8BD2020C4F88000C4F8840084F8B4
:101C20007C600020F8BD00002DE9F05F04460168EB
:101C300080682369E5691843636900272B431843CB
:101C4000636EF64A03430868F54D28401843086060
:101C500020684168E36821F44051194341602168DC
:101C6000A069914201D0236A18438B68ED4D2B4047
:101C700003438B602068C16A636A21F00F01194336
:101C8000C162EA49E84B20688E1598420DD1D1F81F
:101C9000881011F0030106D0012969D0022965D00E
:101CA000032950D166E001254EE0E14B98420BD16B
:101CB000D1F8881011F00C0156D0042958D0082909
:101CC00054D00C293FD155E0DA4B98420BD1D1F8D2
:101CD000881011F0300147D0102949D0202945D073
:101CE000302930D146E0D44B98420BD1D1F888103E
:101CF00011F0C00138D040293AD0802936D0C0290F
:101D000021D137E0CD4B98420DD1D1F8881011F494
:101D1000407129D0B1422BD0B1F5007F26D0B1F56A
:101D2000407F10D126E090420DD1D1F8881011F4F7
:101D3000406119D0B1F5806F1AD0B1F5006F15D0A0
:101D4000B1F5406F16D01025DFF8F4A24FF000096E
:101D50004FF4004B90426ED175B1022D29D0042D65
:101D600059D0082D68D176E00025EDE70225EBE794
:101D70000425E9E70825E7E7FEF76EFF4DE00128B7
:101D800051D0022851D0032851D0042851D0052821
:101D900053D0062853D0072853D0082853D00928F9
:101DA00053D00A2853D00B2853D03AE0B1FBF0F0BF
:101DB0006CE0606AA8B1012817D0022817D0032868
:101DC00017D0042817D0052817D0062817D00728C1
:101DD00017D0082817D0092817D00A2817D00B28A1
:101DE00017D00120BAFBF0F050E00220FAE70420FF
:101DF000F8E70620F6E70820F4E70A20F2E70C20CF
:101E0000F0E71020EEE72020ECE74020EAE7802012
:101E1000E8E73046E6E7FEF743FF0146606A002840
:101E2000ADD10120C2E70220C0E70420BEE70620B2
:101E3000BCE70820BAE738E14AE00A20B6E70C2000
:101E4000B4E71020B2E72020B0E74020AEE78020C2
:101E5000ACE73046AAE7606AA8B1012822D0022880
:101E600022D0032822D0042822D0052822D00628F8
:101E700022D0072822D0082822D0092822D00A28D8
:101E800022D00B2822D00120BBFBF0F0002820D06C
:101E90006168884601EB4101814219D8B0EB083FE7
:101EA00016D817E00220EFE70420EDE70620EBE765
:101EB0000820E9E70A20E7E70C20E5E71020E3E740
:101EC0002020E1E74020DFE78020DDE73046DBE748
:101ED00001270EE27DB3022D7ED0042D73D0082D94
:101EE000F6D1606AA8B101286ED002286DD003280F
:101EF0006CD004286BD005286AD0062869D0072842
:101F000068D0082867D009287ED00A287DD00B2801
:101F100000D0012632464D46002358460021FEF7E8
:101F200069F9090241EA106102024FEA58001018EB
:101F3000694142463DE0FFE7FEF78EFE9AE0012848
:101F400015D0022815D0032815D0042815D005284F
:101F500015D0062815D0072815D0082815D009282F
:101F600015D00A2815D00B2814D0012612E002261D
:101F700010E004260EE006260CE008260AE00A26F9
:101F800008E00C2606E0102604E0202602E04026A9
:101F900000E080260023084632464D461946FEF7EB
:101FA00029F90902626841EA106103025008181811
:101FB00069410023FEF71EF9224AA0F540719142C3
:101FC00070D985E708E053E05AE05BE05CE05DE053
:101FD0005EE05FE060E061E0606AC0B1012833D09C
:101FE000022833D0032833D0042833D0052833D037
:101FF000062833D0072833D0082833D0092833D017
:102000000A2833D00B2801E04AE04CE000D001263A
:1020100032464D460023504680E7000000800040D5
:10202000F369FFCFFFF4FF110038014000100240B8
:102030000044004000480040004C00400050004078
:102040000024F400FFFC0F000226E1E70426DFE78E
:102050000626DDE70826DBE70A26D9E70C26D7E7C0
:102060001026D5E72026D3E74026D1E78026CFE704
:10207000FEF716FE0146606A00283FF476AF5EE781
:10208000022647E7042645E7062643E7082641E7F8
:102090000A263FE70C263DE710263BE7202639E7D6
:1020A000402637E723E1802634E7E0694FF6EF78F2
:1020B00058456ED1092D84D2DFE805F006093C05AC
:1020C00080050505830003E7FEF7C6FD01E0FEF786
:1020D000D5FD0146606AA8B1012815D0022815D0A7
:1020E000032815D0042815D0052815D0062815D0AA
:1020F000072815D0082815D0092815D00A2815D08A
:102100000B2814D0012612E0022610E004260EE06F
:1021100006260CE008260AE00A2608E00C2606E05F
:10212000102604E0202602E0402600E08026B1FBD5
:10213000F6F01AE0606AA8B101282BD002282BD053
:1021400003282BD004282BD005282BD006282BD0F1
:1021500007282BD008282BD009282BD00A282BD0D1
:102160000B2800D00126BAFBF6F04100606801EBB5
:102170005001B1FBF0F080B2A0F110014145A2D8AE
:102180004FF6F0710140C0F3420001432068C16086
:10219000AFE046E00226E6E70426E4E70626E2E7AB
:1021A0000826E0E70A26DEE70C26DCE71026DAE759
:1021B0002026D8E74026D6E78026D4E7FEF770FD34
:1021C00087E7606AA8B1012817D0022817D0032832
:1021D00017D0042817D0052817D0062817D00728AD
:1021E00017D0082817D0092817D00A2817D00B288D
:1021F00000D00126BBFBF6F0B7E70226FAE704267B
:10220000F8E70626F6E70826F4E70A26F2E70C26A2
:10221000F0E71026EEE72026ECE74026EAE78026E6
:10222000E8E7092DBFF4CDAEDFE805F006093C056F
:102230008305050586004BE6FEF70EFD01E0FEF77F
:102240001DFD0146606AA8B1012815D0022815D0ED
:10225000032815D0042815D0052815D0062815D038
:10226000072815D0082815D0092815D00A2815D018
:102270000B2814D0012612E0022610E004260EE0FE
:1022800006260CE008260AE00A2608E00C2606E0EE
:10229000102604E0202602E0402600E08026B1FB64
:1022A000F6F11AE0606AA8B101282ED002282ED0DB
:1022B00003282ED004282ED005282ED006282ED074
:1022C00007282ED008282ED009282ED00A282ED054
:1022D0000B2800D00126BAFBF6F1606801EB500133
:1022E000B1FBF0F080B2A0F110014145A3D8216804
:1022F000C8600120A4F86A0024F8680F3846C4F8C2
:102300000490C4F8089000F047B80226E3E70426DA
:10231000E1E70626DFE70826DDE70A26DBE70C26ED
:10232000D9E71026D7E72026D5E74026D3E7802631
:10233000D1E7FEF7B5FC84E7606AA8B1012817D0A1
:10234000022817D0032817D0042817D0052817D043
:10235000062817D0072817D0082817D0092817D023
:102360000A2817D00B2800D00126BBFBF6F1B4E7F2
:102370000226FAE70426F8E70626F6E70826F4E739
:102380000A26F2E70C26F0E71026EEE72026ECE717
:102390004026EAE78026E8E730BCBDE8C09F0000A1
:1023A0002DE9F0479A4617460E4604464FF00009BD
:1023B0004FF02008089D39E0681C37D0FEF778F808
:1023C000A0EB0A00A84222D80DB320680168490793
:1023D0002CD5C069C043000528D421684FF40060A3
:1023E00008622068016821F4D0710160206881686A
:1023F00021F001018160C4F88080C4F88480C4F8B1
:10240000888000BF84F87C900320BDE8F0872068B6
:10241000016821F4D07101602068816821F0010118
:102420008160C4F88080C4F88480EBE72068C069CC
:1024300036EA000004D00020B842BDD00020E4E716
:102440000120F9E7FEE70907090E002804DB00F187
:10245000E02080F80014704700F00F0000F1E02049
:1024600080F8141D704702E008C8121F08C1002A36
:10247000FAD170477047002001E001C1121F002A05
:10248000FBD17047FEF722F8FFF7ABFAFFF742F8EF
:10249000FFF7E2F84FF47A730C2202A10548FEF729
:1024A000D9FFFEE748656C6C6F20776F72640D0A88
:1024B00000000000100000200000000000000000EC
:1024C0000102030406070809A0860100400D03006D
:1024D000801A060000350C0040420F0080841E0068
:1024E00000093D0000127A000024F40000366E015D
:1024F0000048E801006CDC02000000000102030457
:1025000020250008000000201000000066240008BC
:1025100030250008100000209040000076240008BC
:1025200010000000010000000000000000093D0054
:04000005080001BD31
:00000001FF
