:020000040800F2
:10000000A8400020D1010008D9010008DB01000848
:10001000DD010008DF010008E10100080000000028
:10002000000000000000000000000000E3010008E4
:10003000E501000800000000E7010008DD1A0008E3
:10004000EB010008EB010008EB010008EB010008E0
:10005000EB010008EB010008EB010008EB010008D0
:10006000EB010008EB010008EB010008EB010008C0
:10007000EB010008EB010008EB010008EB010008B0
:10008000EB010008EB010008EB010008EB010008A0
:10009000EB010008EB010008EB010008EB01000890
:1000A000EB010008EB010008EB010008EB01000880
:1000B000EB010008EB010008EB010008EB01000870
:1000C000EB010008EB010008EB010008EB01000860
:1000D000EB010008EB010008EB010008EB01000850
:1000E000EB010008EB010008EB010008EB01000840
:1000F000EB010008EB010008EB0100080000000024
:10010000EB010008EB010008EB010008EB0100081F
:10011000EB010008EB010008EB010008EB0100080F
:10012000EB010008EB010008EB010008EB010008FF
:10013000EB010008EB010008EB010008EB010008EF
:10014000EB010008EB010008EB010008EB010008DF
:10015000EB010008EB010008EB010008EB010008CF
:10016000EB010008EB010008EB010008EB010008BF
:10017000EB010008EB010008000000000000000097
:10018000EB010008EB010008EB010008EB0100089F
:10019000EB010008EB010008000000000000000077
:1001A0000000000000000000EB010008EB01000867
:1001B000EB010008EB010008EB010008DFF80CD0B0
:1001C00000F072F800480047A5250008A84000206C
:1001D0000648804706480047FEE7FEE7FEE7FEE7E1
:1001E000FEE7FEE7FEE7FEE7FEE7FEE7791B000815
:1001F000BD0100082DE9F05F0546002092469B46B0
:1002000088460646814640241BE02846414647462C
:10021000224600F039F853465A46C01A914110D38D
:1002200011461846224600F020F82D1A67EB010807
:100230004F4622460120002100F017F817EB000975
:100240004E41201EA4F10104DFDC484631462A4617
:10025000434600F000B830BCBDE8C09F421C10F817
:10026000011B0029FBD1801A7047202A04DB203AA9
:1002700000FA02F1002070479140C2F1200320FAF9
:1002800003F3194390407047202A04DB203A21FAF7
:1002900002F00021704721FA02F3D040C2F120029F
:1002A0009140084319467047064C074D06E0E06848
:1002B00040F0010394E8070098471034AC42F6D3AD
:1002C000FFF780FF38260008582600082DE9F84F70
:1002D000DFF888B100234FF0010C4FF0030A4FF014
:1002E0000F090BF1040EB1E00CFA03F632406FD0A7
:1002F0004C68022C01D0122C11D1DC0800EB8407D1
:100300003C6A5D07ED0E09FA05F824EA0804D1F805
:10031000108008FA05F848EA0408C7F82080076842
:100320005D0091F804800AFA05F408F00308A74379
:1003300008FA05F848EA0708C0F800804F68012F5E
:1003400005D0022F03D0112F01D0122F10D1D0F8D9
:100350000880CF6828EA0408AF4047EA08078760AA
:100360004768B7430E79C6F300169E403E43466089
:10037000C668A6438C68AC403443C4604C68E40053
:1003800063D5374C256E45F001052566246E23F0B4
:10039000030504F001040094324C2F19BD689C073A
:1003A000260F09FA06F4A543B0F1904F04D02E4C65
:1003B000A04203D1012421E000241FE02B4CA042E5
:1003C00001D102241AE02A4CA04202D1032415E0F4
:1003D0003BE0284CA04201D104240FE0264CA0426F
:1003E00001D105240AE0254CA04201D1062405E0F4
:1003F000234CA04201D1072400E00824B4402C4340
:10040000BC60DBF800405D464E689443F60300D5BF
:1004100014432C60DEF8004075464E689443B603E2
:1004200000D514432C600D4D08352C684E6894435C
:10043000F60200D514432C60084D0C352C684E682C
:100440009443B60200D514432C605B1C0A6832FA50
:1004500003F47FF449AF00F015B800000004014038
:10046000001002400000014000040048000800485D
:10047000000C004800100048001400480018004814
:10048000001C004818BCBDE8E08F0AB181617047CC
:1004900081627047014880687047000008000020B2
:1004A000024881684268114481607047080000205A
:1004B00010B50024032000F08DF8002000F008F8AB
:1004C00008B1012401E000F025F8204610BD00002D
:1004D00070B50E4E05460024706898B14FF47A71DD
:1004E000B1FBF0F00A490968B1FBF0F000F015FF2C
:1004F00040B9102D06D200222946501E00F04AF8BD
:10050000356000E00124204670BD00000800002096
:10051000140000201E4808B5016E41F0010101667B
:10052000016E01F001010091816D41F08051816502
:10053000806D00F080500090032000F04BF8002206
:1005400011466FF00B0000F025F8002211466FF005
:100550000A0000F01FF8002211466FF0090000F0B9
:1005600019F800221146501F00F014F8002211461D
:10057000101F00F00FF800221146901E00F00AF83C
:100580000022BDE808401146501E00F003B80000EC
:1005900000100240F0B40E4B1B680C46C3F302235C
:1005A000C3F10705042D00D90425191D072901D21F
:1005B000002300E0DB1E012606FA05F1491E21405A
:1005C00099409E40761E16403143F0BC01F0CABFF0
:1005D0000CED00E0064900F0070208684FF6FF0343
:1005E000184040EA0220034A1043086070470000A8
:1005F0000CED00E00000FA052B492C4B0A68322173
:100600004A432B4940B1B0F5007F086829D020F457
:10061000C06040F480602CE00868C0F341200228EC
:1006200004D051F8800F20F4807022E0D1F88000CF
:1006300020F48070C1F88000086820F4C06040F4A5
:1006400000700860B2FBF3F0401C00E0401E4A69F5
:10065000520501D50028F9D1486940050AD5032083
:100660007047C0F34120022806D051F8800F40F4B3
:100670008070086000207047D1F8800040F48070DE
:10068000C1F88000086820F4C06040F40070086081
:10069000B2FBF3F0401C00E0401E4A695205DBD576
:1006A0000028F9D1D8E700001400002040420F00D4
:1006B000007000400248416841F400714160704799
:1006C0000070004008480168C1F34121022906D0AA
:1006D000D0F88000C00505D54FF4007070474FF486
:1006E0008060704700207047007000402DE9F84F8F
:1006F0000446002700883E46010504F12008FE4D0F
:100700001ED5E06E40280AD003DC68B1202804D151
:100710000FE0602821D080281FD001270FE0E86873
:1007200040F48030E86018E00021201D01F03AF824
:1007300003E00021404601F0C9F807000DD03E4615
:100740002088C0042BD5206FB0F5007F16D00DDCBB
:10075000C8B1B0F5807F0FD11AE0D5F89C00E16EEA
:1007600020F0E0000843C5F89C00E9E7B0F5407FC1
:1007700013D0B0F5806F10D001270FE0E86840F487
:100780008030E86009E00021201D01F00BF803E053
:100790000021404601F09AF80746F7B13E4620682E
:1007A00080033AD5A86D4FF00008C00009D4A86DA9
:1007B00040F08050A865A86D4FF0010800F080500F
:1007C0000090DFF838A3DAF8001041F48071CAF81D
:1007D0000010FFF75FFE814610E0D5F89C00216F06
:1007E00020F4E0600843C5F89C00D8E7FFF752FE0C
:1007F000A0EB0900022801D9032705E0DAF8000080
:10080000C005F3D5002F7CD04FEA0706B8F1000FE2
:1008100003D0A86D20F08050A8652078C00707D0CD
:10082000D5F88800E16B20F003000843C5F8880084
:100830002078800707D5D5F88800216C20F00C00BF
:100840000843C5F888002078400707D5D5F8880008
:10085000616C20F030000843C5F88800207800075C
:1008600007D5D5F88800A16C20F0C0000843C5F872
:1008700088002078C00607D5D5F88800E16C20F400
:1008800040700843C5F888002078800607D5D5F861
:100890008800216D20F440600843C5F88800208856
:1008A000800507D5D5F88800616E20F44020084304
:1008B000C5F888002088400507D5D5F88800A16EC6
:1008C00020F440100843C5F888002078400607D57A
:1008D000D5F88800616D20F440500843C5F88800C1
:1008E0002078000607D5D5F88800A16D20F4404097
:1008F0000843C5F888002088C00509D5D5F88800C8
:1009000000E027E0E16D20F440300843C5F888009E
:100910002068C00207D5D5F89C00216E20F00300A6
:100920000843C5F89C0020884FF0006780044FF012
:10093000806850D5D5F88800616F20F0406008438A
:10094000C5F88800606FB8423DD1E86840F4801077
:10095000E86040E0D5F8900010F4407015D0D4F86D
:100960009010814211D0D5F89000D5F8901020F465
:10097000407041F48031C5F89010D5F8901021F402
:100980008031C5F89010C5F89000C00711D0FFF76E
:1009900081FD074641F2883907E000BFFFF77AFD85
:1009A000C11B494501D9032630E7D5F890008007DF
:1009B000F4D5D5F89000D4F8901020F44070084396
:1009C000C5F8900022E7404505D10121201D00F027
:1009D000E9FE00B10646206800032DD5A06F4FF454
:1009E00080418842D5F89C0004D140F48040C5F88D
:1009F0009C000BE020F48040C5F89C00D5F88800EE
:100A0000A26F20F040601043C5F88800A06FB84284
:100A100003D1E86840F4801004E0884204D1E8681B
:100A200040F48030E86007E0404505D10121201DF9
:100A300000F0B8FE00B106462068400317D5D5F88F
:100A40008800E16F20F040600843C5F88800E06F3F
:100A5000B84204D1E86840F48010E86007E04045FF
:100A600005D10121201D00F09DFE00B10646208821
:100A7000400413D5D5F88800D4F8801020F04050F9
:100A80000843C5F88800D4F88000B0F1805F05D134
:100A90000221201D00F086FE00B106462068C0033A
:100AA00008D5D5F89C00D4F8841020F00400084341
:100AB000C5F89C002068800208D5D5F89C00D4F8C1
:100AC000881020F018000843C5F89C002068C00179
:100AD00010D5D5F89C0054F88C1F20F44010084322
:100AE000C5F89C002068B0F5001F03D1E86840F409
:100AF0008010E860304603E00010024000700040C3
:100B000000F000B818BCBDE8E08F00002DE9F04708
:100B10000E4605004FF000077ED0DFF85C81D8F864
:100B2000000000F00F00B0420CD2D8F8001021F005
:100B30000F013143C8F80010D8F8000000F00F0092
:100B4000B04271D128784D4CC0074BD06868DFF8AF
:100B5000309103281ED002282ED0002820682ED0E5
:100B60004005002860DA00F0BDF8484506D9A068C5
:100B700020F0F00040F08000A0608027A068696845
:100B800020F003000843A060FFF784FC814641F297
:100B9000883A20E02068800146D500F02BFF4845C8
:100BA000ECD9A06810F0F00FE1D028788007E5D5E7
:100BB000A8680028DBD0E1E720688003D1E7800740
:100BC000CFE700BFFFF766FCA0EB0901514502D952
:100BD0000320BDE8F087A068696800F00C00B0EB66
:100BE000810FEFD12878800705D5A068A96820F08B
:100BF000F000084304E0802F03D1A06820F0F0004B
:100C0000A060D8F80010404601F00F01B1420DD9A4
:100C1000016821F00F0100E006E031430160006847
:100C200000F00F00B04201D00120D2E72878400741
:100C300005D5A068E96820F4E0600843A060287842
:100C4000000706D5A068296920F4605040EAC10079
:100C5000A06000F047F8A1680A4AC1F30311515C93
:100C600001F01F01C8400849086008480068BDE855
:100C7000F047FFF72DBC00000020024000100240AA
:100C800000B4C404E425000814000020080000207B
:100C9000014800687047000014000020054806491C
:100CA00000688968054AC1F30221515C01F01F0107
:100CB000C84070471400002000100240242600089D
:100CC0000548064900688968054AC1F3C221515C9C
:100CD00001F01F01C84070471400002000100240BE
:100CE0002426000870B52549002318468A68CC6878
:100CF00012F00C0204F00306214C4FEA640509D0FF
:100D00000C2A05D0042A32D0082A00D1284670BD0A
:100D1000012E10D10B681B0704D4D1F89430C3F313
:100D2000032302E00B68C3F30313164E56F8233077
:100D3000DAB10C2AEBD1C86800F00300022818D001
:100D4000032818D01846CA68CB68C2F30312C3F34D
:100D500006234343521CB3FBF2F2C868C0F3416060
:100D6000401C4000B2FBF0F070BD184670BD20463C
:100D700070BD2046E7E72846E5E700000010024086
:100D80000024F400F42500082DE9F84304006FD096
:100D9000FA4DA86800F00C06E86800F00307207818
:100DA000C00664D576B10C2E01D1012F0AD0A069FE
:100DB000002828687AD040F001002860FFF76AFB1D
:100DC00080465DE02868800702D5A0690028DED053
:100DD000216A2868000703D5286800F0F00004E0C5
:100DE000D5F89400F02202EA1010814216D9084684
:100DF00000F03AFE00283BD1286840F00800286047
:100E00002868216A20F0F000084328606868E169DA
:100E100020F47F4040EA0120686016E0286840F036
:100E2000080028602868216A20F0F0000843286044
:100E30006868E16920F47F4040EA0120686026B9D3
:100E4000206A00F011FE0028D5D1FFF74BFFA968FA
:100E5000CB4AC1F30311515C01F01F01C840C949DD
:100E60000860C9480068FFF733FB00287ED12EE0F8
:100E7000CAE000BFFFF70EFBA0EB0800022876D8FF
:100E800028688007F6D5286840F0080028602868A0
:100E9000216A20F0F000084328606868E16920F4C6
:100EA0007F4040EA0120686011E0FFE720F0010088
:100EB0002860FFF7EFFA804606E000BFFFF7EAFA86
:100EC000A0EB08000228DAD828688007F6D420783A
:100ED000C00740D0082E18D00C2E01D1032F14D0FB
:100EE0006068B0F5803F17D0B0F5A02F286817D004
:100EF00020F480302860286820F480202860606812
:100F0000E0B1FFF7C7FA804614E02868800322D5D5
:100F10006068002878D01EE0286840F48030EDE753
:100F200040F480202860F7E7FFF7B4FAA0EB080050
:100F30006428A4D828688003F6D50CE0FFF7AAFA45
:100F4000804605E0FFF7A6FAA0EB0800642896D8D3
:100F500028688003F6D4207880073BD5042E11D072
:100F60000C2E01D1022F0DD0E06801E0BAE1FFE0C4
:100F7000002828681ED040F480702860FFF78AFAA5
:100F800007460CE0286840050CD5E0680028C1D071
:100F900008E000BFFFF77EFAC01B022893D828683C
:100FA0004005F7D56868217C20F0FE4040EA0160EA
:100FB00068600FE020F480702860FFF76BFA074646
:100FC00005E000BFFFF766FAC01B0228B1D8286809
:100FD0004005F7D42078000729D560690028D5F8A6
:100FE000940012D040F00100C5F89400FFF752FAC7
:100FF000074604E0FFF74EFAC01B022899D8D5F83F
:1010000094008007F6D512E02BE120F00100C5F82E
:101010009400FFF73FFA074605E000BFFFF73AFAF2
:10102000C01B022885D8D5F894008007F6D4207814
:10103000400766D5A86D0027C00008D4A86D40F011
:101040008050A865A86D012700F0805000904F489F
:101050000168C90512D40168814641F480710160BC
:10106000FFF718FA804605E0FFF714FAA0EB080036
:1010700002287DD8D9F80000C005F5D5A068012860
:1010800016D00528D5F8900017D020F00100C5F83B
:101090009000D5F8900020F0040000BFC5F8900043
:1010A000A06841F28839C0B1FFF7F4F980460FE03B
:1010B000D5F8900040F00100F0E740F00400C5F8DA
:1010C0009000F5E7FFF7E6F9A0EB080149454FD896
:1010D000D5F890008007F5D50EE0FFF7DBF98046E4
:1010E00006E000BFFFF7D6F9A0EB080149453FD85D
:1010F000D5F890008007F5D41FB1A86D20F080507E
:10110000A8652078800628D5606A0028D5F8980060
:1011100012D040F00100C5F89800FFF7BBF9074670
:1011200005E000BFFFF7B6F9C01B022820D8D5F8AC
:1011300098008007F6D510E020F00100C5F898006F
:10114000FFF7A8F9074604E0FFF7A4F9C01B02283F
:101150000ED8D5F898008007F6D4A06AF0B302281C
:1011600016D00C2E7DD0286820F08070286000E01A
:10117000B7E0286810F0205F74D0A4E000100240AF
:10118000E425000814000020080000200070004042
:10119000E868E26A00F00301914228D1216B00F077
:1011A000F00209011039914221D1626B00F4FE4135
:1011B000B1EB022F1BD194F8382000F07841B1EB4D
:1011C000C26F14D1A18F00F4C00249084905A1F5EE
:1011D000001191420BD194F8401000E06EE04908F4
:1011E000490600F0C060A1F1007181424FD00C2E81
:1011F0007FD0286840017CD42868C00079D4286852
:1012000020F080702860FFF745F9064605E000BF32
:10121000FFF740F9801B022863D828688001F7D4C3
:10122000F4E90B016FF00F0202EB01110843218A70
:101230005204490802EB4151A26841EA02210843E5
:10124000217D4FF07E42490802EB41610843217B3A
:1012500040EAC160E968284A11400843E86028680C
:1012600001E046E02BE040F080702860E86840F044
:101270008070E860FFF70EF9044604E0FFF70AF912
:10128000001B02282DD828688001F7D52FE0286898
:1012900080012CD4286840F080702860E86840F015
:1012A0008070E860FFF7F6F8044604E0FFF7F2F814
:1012B000001B022815D828688001F7D517E0E868D8
:1012C00020F00300E860E8680C490840E860FFF798
:1012D000E1F8044608E000BFFFF7DCF8001B022835
:1012E00002D90320BDE8F88328688001F4D40020E7
:1012F000F8E70120F6E700000C809D01FFFFEEFEFD
:101300004FF0E0210428086903D020F004000861B0
:10131000704740F00400FAE7704710B5401EB0F186
:10132000807F01D3012010BD4FF0E02460610F21C8
:10133000601701F017F90020A0610720206100204C
:1013400010BD10B5FFF7E8FF10BD70B5044690F86A
:101350007C0001281DD0012084F87C002420C4F8E2
:10136000800020680568026822F00102026020689F
:10137000826822F060620A438260204600F01EFC10
:10138000206805602020C4F88000002084F87C00DC
:1013900070BD022070BD70B5044690F87C00012835
:1013A0001DD0012084F87C002420C4F8800020682F
:1013B0000568026822F0010202602068826822F05B
:1013C00060420A438260204600F0F8FB2068056016
:1013D0002020C4F88000002084F87C0070BD02202A
:1013E00070BD10B5040003D0D4F8800010B107E040
:1013F000012010BD002084F87C00204600F026F873
:101400002420C4F880002068016821F001010160F7
:10141000204600F099FC0128EBD0A06A10B12046CC
:1014200000F0FEFB2068416821F490414160206893
:10143000816821F02A0181602068016841F0010182
:1014400001602046BDE8104000F04EBC00B50068C9
:101450000E4987B0884217D10D48C16D41F0010196
:10146000C165C06D694600F0010005904FF4C07081
:101470000090022001900020029003200390082099
:1014800004900448FEF722FF07B000BD0080004032
:1014900000100240001800482DE9F8430446D0F837
:1014A00080001F4616460D46202851D1DDB1D6B129
:1014B00094F87C0001284BD0012084F87C004FF088
:1014C0000008C4F888802120C4F880001834FEF792
:1014D000E1FFA6878146E68754F8100C183CB0F56A
:1014E000805F03D004E00120BDE8F883206920B1CB
:1014F0002E46002584F87C8010E00026FAE7802143
:10150000204600F0DDFFB8B9C6B116F8010B21681E
:101510000885B4F85600401EA4F85600B4F85600EA
:101520004B464FF0000200970028E8D14FF04001F1
:10153000204600F0C5FF30B10320D5E735F8020B97
:10154000C0F30800E3E72020C4F880000020CBE7C8
:101550000220C9E72DE9F04F734887B0C16C41F014
:101560001001C164C16C01F010010591C16C41F022
:101570000401C164C16C01F004010591C16C41F02A
:101580002001C164C16C01F020010591C16C41F0E2
:101590008001C164C16C01F080010591C16C41F012
:1015A0000101C164C16C01F001010591C16C41F000
:1015B0000201C164C16C01F002010591C16C41F0EE
:1015C0004001C164C16C01F040010591C16C41F062
:1015D0000801C164C06C00F008000590FFF76AF8CC
:1015E000DFF848914FF48147002239464846FEF71C
:1015F0004CFFDFF83CB1002240215846FEF745FF82
:101600004FF6FF76032500240096CDE90154694684
:101610004848FEF75BFE4FF4005000904648CDE985
:101620000104DFF8188169464046FEF74FFE009638
:10163000CDE9015469464248FEF748FEF010CDE975
:101640000005694602944046FEF740FE48F2FF005E
:10165000CDE900054FF0904A694602945046FEF7E6
:1016600035FE4BF67770CDE9000569460294484691
:10167000FEF72CFE4FF61F60CDE900056946029487
:101680005846FEF723FE01260097CDE9016469461E
:1016900048460394FEF71AFE28020227CDE9000708
:1016A00002940720CDE90350DFF898806946404650
:1016B000FEF70CFE4FF6FF40CDE9000569460294A7
:1016C0004046FEF703FE2020CDE900046946584657
:1016D0000294FEF7FBFD40200090CDE901646946CD
:1016E00058460394FEF7F2FD4FF4E850CDE90007A9
:1016F00002940A20CDE9035069465046FEF7E6FD04
:101700007002CDE90004694650460294FEF7DEFD02
:101710000820CDE90005694602940B48FEF7D6FD86
:1017200007B000F013B800000010024000040048A9
:101730000018004800100048000011100008004880
:1017400000140048000C0048001C004830BCBDE8F4
:10175000C08F0000124810B5104901604FF4E1310C
:101760004160002181600C22C160C0E904128161E6
:101770000162416281624166FFF733FE00B1FEE71C
:1017800000210748FFF707FE00B1FEE700210448EB
:10179000FFF7DBFD002800D0FEE710BD0080004011
:1017A000180000202DE9F041434C05468846E068CA
:1017B00000268107286806D0E16801F00301814214
:1017C0000FD170B11AE0012804D0022805D00328F7
:1017D00007D108E02168890701E02168490500294F
:1017E00007DB012664E02168890302D421684903EC
:1017F000F5E7E16821F003010143E160206820F092
:1018000080602060FEF746FE074604E0FEF742FED9
:10181000C01B022843D820680001F7D46FF00F00E6
:10182000B8F1000F1BD0B8F1010F24D0297D490871
:10183000420502EB4161AA6841EA02216A6800EBB5
:101840000210014320691D4A1040014321612068B4
:1018500040F080602060FEF71DFE074621E0A96889
:101860002A7B090241EAC2616A6800EB0210014367
:101870002069134AE8E7298A124A490802EB4151D4
:10188000AA6841EA02216A6800EB0210014320695C
:101890000D4AD9E7FEF7FEFDC01B022801D9032639
:1018A00006E020680001F5D52069A9690843206198
:1018B0003046BDE8F0810000001002400F80FFF9C3
:1018C0000F80FF070000E0FF0F809FFF2DE9F04130
:1018D000434C05468846E06800268107286806D004
:1018E000E16801F0030181420FD170B11AE00128D3
:1018F00004D0022805D0032807D108E02168890711
:1019000001E021684905002907DB012664E0216820
:10191000890302D421684903F5E7E16821F0030156
:101920000143E160206820F080502060FEF7B2FDA6
:10193000074604E0FEF7AEFDC01B022843D820682E
:101940008000F7D46FF00F00B8F1000F1BD0B8F192
:10195000010F24D0297D4908420502EB4161AA68A4
:1019600041EA02216A6800EB0210014360691D4AE6
:10197000104001436161206840F080502060FEF714
:1019800089FD074621E0A9682A7B090241EAC26174
:101990006A6800EB021001436069134AE8E7298A8C
:1019A000124A490802EB4151AA6841EA02216A68D9
:1019B00000EB0210014360690D4AD9E7FEF76AFDAA
:1019C000C01B022801D9032606E020688000F5D557
:1019D0006069A969084360613046BDE8F081000094
:1019E000001002400F80FFF90F80FF070000E0FFAA
:1019F0000F809FFF18480021C26802F00302012AED
:101A00000DD10168090704D4D0F89410C1F3032163
:101A100002E00168C1F30311104A52F82110C268B4
:101A200002F00302022A02D0032A03D101E00C498A
:101A300000E00C49C268C368C2F30312C3F3062373
:101A40004B43521CB3FBF2F1C068C0F34160401C31
:101A50004000B1FBF0F0704700100240F425000890
:101A60000024F40000127A00F8B51A4D064600244E
:101A7000A86DC00002D5FEF725FE0DE0A86D40F070
:101A80008050A865A86D00F080500090FEF71AFE07
:101A9000A96D21F08051A965B0F5007F03D0802E9B
:101AA00006D3022407E0802E05D9A02EF9D801E044
:101AB000702E00D101240848016821F00F01214354
:101AC0000160006800F00F00A04201D00120F8BDC5
:101AD0000020F8BD001002400020024010B5FEF7C3
:101AE000DFFCBDE81040FFF72CBC10B5BCB00020F7
:101AF000FEF782FD00B1FEE7102025900024602053
:101B0000CDE92C4001212B910220CDE92F0131910B
:101B10003C21CDE932103490359025A8FFF734F9F7
:101B200000B1FEE70F2036900320CDE937044FF4D3
:101B30008060CDE93904052136A8FEF7E7FF00B142
:101B4000FEE72020149400906846FEF7CFFD00B118
:101B5000FEE7FFF79DF84FF47A71B0FBF1F0FFF765
:101B6000DCFB0420FFF7CCFB00221146501EFEF7E1
:101B700011FD3CB010BD00000D48016841F470013A
:101B800001600C48016841F00101016000218160A1
:101B90000268094B1A4002608214C260026822F493
:101BA0008022026081610249C00380390860704769
:101BB00088ED00E000100240FFFFF6EA3FB514A1F7
:101BC000D1E90021CDE9002113A2D2E90012CDE92B
:101BD0000212416EB9B1026891689268C1F3426124
:101BE000520F1DF80240E50002ACA25CB5FBF2F218
:101BF000A0F86A201DF80120615CD200B2FBF1F16F
:101C0000A0F868103FBD0121A0F86A10F8E70000B5
:101C10000101010307010000080402040801010199
:101C200090F82810C90706D001684A68C36A22F4F0
:101C300000321A434A6090F82810890706D50168D7
:101C40004A68036B22F480321A434A6090F82810E5
:101C5000490706D501684A68436B22F480221A437B
:101C60004A6090F82810090706D501684A68836B16
:101C700022F400421A434A6090F82810C90606D59B
:101C800001688A68C36B22F480521A438A6090F814
:101C90002810890606D501688A68036C22F4005270
:101CA0001A438A6090F82810490611D501684A68DD
:101CB000436C22F480121A434A60416CB1F5801FD4
:101CC00006D101684A68836C22F4C0021A434A6054
:101CD00090F82810090606D501684A68C06C22F4FD
:101CE000002202434A607047F8B500260446C0F857
:101CF0008860FEF7CFFB0546206800686FF07E47DE
:101D0000000708D52B4600224FF40011204600970B
:101D100000F0D6FB60B92068006840070AD52B4662
:101D200000224FF480012046009700F0C9FB08B163
:101D30000320F8BD2020C4F88000C4F8840084F893
:101D40007C600020F8BD00002DE9F05F04460168CA
:101D500080682369E5691843636900272B431843AA
:101D6000636EF64A03430868F54D2840184308603F
:101D700020684168E36821F44051194341602168BB
:101D8000A069914201D0236A18438B68ED4D2B4026
:101D900003438B602068C16A636A21F00F01194315
:101DA000C162EA49E84B20688E1598420DD1D1F8FE
:101DB000881011F0030106D0012969D0022965D0ED
:101DC000032950D166E001254EE0E14B98420BD14A
:101DD000D1F8881011F00C0156D0042958D00829E8
:101DE00054D00C293FD155E0DA4B98420BD1D1F8B1
:101DF000881011F0300147D0102949D0202945D052
:101E0000302930D146E0D44B98420BD1D1F888101C
:101E100011F0C00138D040293AD0802936D0C029ED
:101E200021D137E0CD4B98420DD1D1F8881011F473
:101E3000407129D0B1422BD0B1F5007F26D0B1F549
:101E4000407F10D126E090420DD1D1F8881011F4D6
:101E5000406119D0B1F5806F1AD0B1F5006F15D07F
:101E6000B1F5406F16D01025DFF8F4A24FF000094D
:101E70004FF4004B90426ED175B1022D29D0042D44
:101E800059D0082D68D176E00025EDE70225EBE773
:101E90000425E9E70825E7E7FEF700FF4DE0012804
:101EA00051D0022851D0032851D0042851D0052800
:101EB00053D0062853D0072853D0082853D00928D8
:101EC00053D00A2853D00B2853D03AE0B1FBF0F09E
:101ED0006CE0606AA8B1012817D0022817D0032847
:101EE00017D0042817D0052817D0062817D00728A0
:101EF00017D0082817D0092817D00A2817D00B2880
:101F000017D00120BAFBF0F050E00220FAE70420DD
:101F1000F8E70620F6E70820F4E70A20F2E70C20AD
:101F2000F0E71020EEE72020ECE74020EAE78020F1
:101F3000E8E73046E6E7FEF7D5FE0146606A00288E
:101F4000ADD10120C2E70220C0E70420BEE7062091
:101F5000BCE70820BAE738E14AE00A20B6E70C20DF
:101F6000B4E71020B2E72020B0E74020AEE78020A1
:101F7000ACE73046AAE7606AA8B1012822D002285F
:101F800022D0032822D0042822D0052822D00628D7
:101F900022D0072822D0082822D0092822D00A28B7
:101FA00022D00B2822D00120BBFBF0F0002820D04B
:101FB0006168884601EB4101814219D8B0EB083FC6
:101FC00016D817E00220EFE70420EDE70620EBE744
:101FD0000820E9E70A20E7E70C20E5E71020E3E71F
:101FE0002020E1E74020DFE78020DDE73046DBE727
:101FF00001270EE27DB3022D7ED0042D73D0082D73
:10200000F6D1606AA8B101286ED002286DD00328ED
:102010006CD004286BD005286AD0062869D0072820
:1020200068D0082867D009287ED00A287DD00B28E0
:1020300000D0012632464D46002358460021FEF7C7
:10204000D9F8090241EA106102024FEA580010185B
:10205000694142463DE0FFE7FEF720FE9AE0012895
:1020600015D0022815D0032815D0042815D005282E
:1020700015D0062815D0072815D0082815D009280E
:1020800015D00A2815D00B2814D0012612E00226FC
:1020900010E004260EE006260CE008260AE00A26D8
:1020A00008E00C2606E0102604E0202602E0402688
:1020B00000E080260023084632464D461946FEF7CA
:1020C00099F80902626841EA106103025008181881
:1020D00069410023FEF78EF8224AA0F54071914233
:1020E00070D985E708E053E05AE05BE05CE05DE032
:1020F0005EE05FE060E061E0606AC0B1012833D07B
:10210000022833D0032833D0042833D0052833D015
:10211000062833D0072833D0082833D0092833D0F5
:102120000A2833D00B2801E04AE04CE000D0012619
:1021300032464D460023504680E7000000800040B4
:10214000F369FFCFFFF4FF11003801400010024097
:102150000044004000480040004C00400050004057
:102160000024F400FFFC0F000226E1E70426DFE76D
:102170000626DDE70826DBE70A26D9E70C26D7E79F
:102180001026D5E72026D3E74026D1E78026CFE7E3
:10219000FEF7A8FD0146606A00283FF476AF5EE7CF
:1021A000022647E7042645E7062643E7082641E7D7
:1021B0000A263FE70C263DE710263BE7202639E7B5
:1021C000402637E723E1802634E7E0694FF6EF78D1
:1021D00058456ED1092D84D2DFE805F006093C058B
:1021E00080050505830003E7FEF758FD01E0FEF7D3
:1021F00067FD0146606AA8B1012815D0022815D0F4
:10220000032815D0042815D0052815D0062815D088
:10221000072815D0082815D0092815D00A2815D068
:102220000B2814D0012612E0022610E004260EE04E
:1022300006260CE008260AE00A2608E00C2606E03E
:10224000102604E0202602E0402600E08026B1FBB4
:10225000F6F01AE0606AA8B101282BD002282BD032
:1022600003282BD004282BD005282BD006282BD0D0
:1022700007282BD008282BD009282BD00A282BD0B0
:102280000B2800D00126BAFBF6F04100606801EB94
:102290005001B1FBF0F080B2A0F110014145A2D88D
:1022A0004FF6F0710140C0F3420001432068C16065
:1022B000AFE046E00226E6E70426E4E70626E2E78A
:1022C0000826E0E70A26DEE70C26DCE71026DAE738
:1022D0002026D8E74026D6E78026D4E7FEF702FD81
:1022E00087E7606AA8B1012817D0022817D0032811
:1022F00017D0042817D0052817D0062817D007288C
:1023000017D0082817D0092817D00A2817D00B286B
:1023100000D00126BBFBF6F0B7E70226FAE7042659
:10232000F8E70626F6E70826F4E70A26F2E70C2681
:10233000F0E71026EEE72026ECE74026EAE78026C5
:10234000E8E7092DBFF4CDAEDFE805F006093C054E
:102350008305050586004BE6FEF7A0FC01E0FEF7CD
:10236000AFFC0146606AA8B1012815D0022815D03B
:10237000032815D0042815D0052815D0062815D017
:10238000072815D0082815D0092815D00A2815D0F7
:102390000B2814D0012612E0022610E004260EE0DD
:1023A00006260CE008260AE00A2608E00C2606E0CD
:1023B000102604E0202602E0402600E08026B1FB43
:1023C000F6F11AE0606AA8B101282ED002282ED0BA
:1023D00003282ED004282ED005282ED006282ED053
:1023E00007282ED008282ED009282ED00A282ED033
:1023F0000B2800D00126BAFBF6F1606801EB500112
:10240000B1FBF0F080B2A0F110014145A3D82168E2
:10241000C8600120A4F86A0024F8680F3846C4F8A0
:102420000490C4F8089000F047B80226E3E70426B9
:10243000E1E70626DFE70826DDE70A26DBE70C26CC
:10244000D9E71026D7E72026D5E74026D3E7802610
:10245000D1E7FEF747FC84E7606AA8B1012817D0EE
:10246000022817D0032817D0042817D0052817D022
:10247000062817D0072817D0082817D0092817D002
:102480000A2817D00B2800D00126BBFBF6F1B4E7D1
:102490000226FAE70426F8E70626F6E70826F4E718
:1024A0000A26F2E70C26F0E71026EEE72026ECE7F6
:1024B0004026EAE78026E8E730BCBDE8C09F000080
:1024C0002DE9F0479A4617460E4604464FF000099C
:1024D0004FF02008089D39E0681C37D0FDF7DAFF7F
:1024E000A0EB0A00A84222D80DB320680168490772
:1024F0002CD5C069C043000528D421684FF4006082
:1025000008622068016821F4D07101602068816848
:1025100021F001018160C4F88080C4F88480C4F88F
:10252000888000BF84F87C900320BDE8F087206895
:10253000016821F4D07101602068816821F00101F7
:102540008160C4F88080C4F88480EBE72068C069AB
:1025500036EA000004D00020B842BDD00020E4E7F5
:102560000120F9E70907090E002804DB00F1E0204B
:1025700080F80014704700F00F0000F1E02080F8B0
:10258000141D704702E008C8121F08C1002AFAD1C2
:1025900070477047002001E001C1121F002AFBD1E3
:1025A00070470000FDF784FFFFF79FFAFEF7D2FFA8
:1025B000FFF7D0F8094C4FF47A756068FDF74EFECE
:1025C00082B22B4606486168FEF766FF2070002045
:1025D000401C80B2A842FBD3EFE7000000000020BF
:1025E00018000020000000000000000001020304A9
:1025F00006070809A0860100400D0300801A0600A6
:1026000000350C0040420F0080841E0000093D0090
:1026100000127A000024F40000366E010048E80140
:10262000006CDC02000000000102030448656C6CD1
:102630006F576F72640A00005826000800000020DF
:1026400018000000842500087026000818000020EB
:102650009040000094250008000000002C2600088F
:1026600010000000010000000000000000093D0013
:04000005080001BD31
:00000001FF
